{
  "contractName": "EthereumClaimsRegistry",
  "abi": [
    {
      "constant": true,
      "inputs": [
        {
          "name": "",
          "type": "address"
        },
        {
          "name": "",
          "type": "address"
        },
        {
          "name": "",
          "type": "bytes32"
        }
      ],
      "name": "registry",
      "outputs": [
        {
          "name": "",
          "type": "bytes32"
        }
      ],
      "payable": false,
      "stateMutability": "view",
      "type": "function"
    },
    {
      "anonymous": false,
      "inputs": [
        {
          "indexed": true,
          "name": "issuer",
          "type": "address"
        },
        {
          "indexed": true,
          "name": "subject",
          "type": "address"
        },
        {
          "indexed": true,
          "name": "key",
          "type": "bytes32"
        },
        {
          "indexed": false,
          "name": "value",
          "type": "bytes32"
        },
        {
          "indexed": false,
          "name": "updatedAt",
          "type": "uint256"
        }
      ],
      "name": "ClaimSet",
      "type": "event"
    },
    {
      "anonymous": false,
      "inputs": [
        {
          "indexed": true,
          "name": "issuer",
          "type": "address"
        },
        {
          "indexed": true,
          "name": "subject",
          "type": "address"
        },
        {
          "indexed": true,
          "name": "key",
          "type": "bytes32"
        },
        {
          "indexed": false,
          "name": "removedAt",
          "type": "uint256"
        }
      ],
      "name": "ClaimRemoved",
      "type": "event"
    },
    {
      "constant": false,
      "inputs": [
        {
          "name": "subject",
          "type": "address"
        },
        {
          "name": "key",
          "type": "bytes32"
        },
        {
          "name": "value",
          "type": "bytes32"
        }
      ],
      "name": "setClaim",
      "outputs": [],
      "payable": false,
      "stateMutability": "nonpayable",
      "type": "function"
    },
    {
      "constant": false,
      "inputs": [
        {
          "name": "key",
          "type": "bytes32"
        },
        {
          "name": "value",
          "type": "bytes32"
        }
      ],
      "name": "setSelfClaim",
      "outputs": [],
      "payable": false,
      "stateMutability": "nonpayable",
      "type": "function"
    },
    {
      "constant": true,
      "inputs": [
        {
          "name": "issuer",
          "type": "address"
        },
        {
          "name": "subject",
          "type": "address"
        },
        {
          "name": "key",
          "type": "bytes32"
        }
      ],
      "name": "getClaim",
      "outputs": [
        {
          "name": "",
          "type": "bytes32"
        }
      ],
      "payable": false,
      "stateMutability": "view",
      "type": "function"
    },
    {
      "constant": false,
      "inputs": [
        {
          "name": "issuer",
          "type": "address"
        },
        {
          "name": "subject",
          "type": "address"
        },
        {
          "name": "key",
          "type": "bytes32"
        }
      ],
      "name": "removeClaim",
      "outputs": [],
      "payable": false,
      "stateMutability": "nonpayable",
      "type": "function"
    }
  ],
  "bytecode": "0x608060405234801561001057600080fd5b506105ed806100206000396000f3fe608060405260043610610067576000357c0100000000000000000000000000000000000000000000000000000000900480639155b01a1461006c5780639918925d146100b1578063c7508ec714610116578063e1661eff14610191578063e6d970aa14610220575b600080fd5b34801561007857600080fd5b506100af6004803603604081101561008f57600080fd5b8101908080359060200190929190803590602001909291905050506102af565b005b3480156100bd57600080fd5b50610114600480360360608110156100d457600080fd5b81019080803573ffffffffffffffffffffffffffffffffffffffff16906020019092919080359060200190929190803590602001909291905050506102be565b005b34801561012257600080fd5b5061018f6004803603606081101561013957600080fd5b81019080803573ffffffffffffffffffffffffffffffffffffffff169060200190929190803573ffffffffffffffffffffffffffffffffffffffff169060200190929190803590602001909291905050506103c2565b005b34801561019d57600080fd5b5061020a600480360360608110156101b457600080fd5b81019080803573ffffffffffffffffffffffffffffffffffffffff169060200190929190803573ffffffffffffffffffffffffffffffffffffffff169060200190929190803590602001909291905050506104f7565b6040518082815260200191505060405180910390f35b34801561022c57600080fd5b506102996004803603606081101561024357600080fd5b81019080803573ffffffffffffffffffffffffffffffffffffffff169060200190929190803573ffffffffffffffffffffffffffffffffffffffff1690602001909291908035906020019092919050505061058f565b6040518082815260200191505060405180910390f35b6102ba3383836102be565b5050565b806000803373ffffffffffffffffffffffffffffffffffffffff1673ffffffffffffffffffffffffffffffffffffffff16815260200190815260200160002060008573ffffffffffffffffffffffffffffffffffffffff1673ffffffffffffffffffffffffffffffffffffffff168152602001908152602001600020600084815260200190815260200160002081905550818373ffffffffffffffffffffffffffffffffffffffff163373ffffffffffffffffffffffffffffffffffffffff167f8c9f893548e8429f9352aba6698e6f4dca2e390604f6e8c5881a7a505d94ae508442604051808381526020018281526020019250505060405180910390a4505050565b8273ffffffffffffffffffffffffffffffffffffffff163373ffffffffffffffffffffffffffffffffffffffff161415156103fc57600080fd5b6000808473ffffffffffffffffffffffffffffffffffffffff1673ffffffffffffffffffffffffffffffffffffffff16815260200190815260200160002060008373ffffffffffffffffffffffffffffffffffffffff1673ffffffffffffffffffffffffffffffffffffffff168152602001908152602001600020600082815260200190815260200160002060009055808273ffffffffffffffffffffffffffffffffffffffff163373ffffffffffffffffffffffffffffffffffffffff167f7bc046ef9f2fccd4c99778d7e0fbed67ddb16e63e1a266894769de9516b8039a426040518082815260200191505060405180910390a4505050565b60008060008573ffffffffffffffffffffffffffffffffffffffff1673ffffffffffffffffffffffffffffffffffffffff16815260200190815260200160002060008473ffffffffffffffffffffffffffffffffffffffff1673ffffffffffffffffffffffffffffffffffffffff16815260200190815260200160002060008381526020019081526020016000205490509392505050565b60006020528260005260406000206020528160005260406000206020528060005260406000206000925092505050548156fea165627a7a72305820bc6b77248d2e68c020ba0f38b8fb9f7be3ad88de209de0a6c15aae389eea06b30029",
  "source": "contract EthereumClaimsRegistry {\r\n\r\n    mapping(address => mapping(address => mapping(bytes32 => bytes32))) public registry;\r\n\r\n    event ClaimSet(\r\n        address indexed issuer,\r\n        address indexed subject,\r\n        bytes32 indexed key,\r\n        bytes32 value,\r\n        uint updatedAt);\r\n\r\n    event ClaimRemoved(\r\n        address indexed issuer,\r\n        address indexed subject,\r\n        bytes32 indexed key,\r\n        uint removedAt);\r\n\r\n    // create or update clams\r\n    function setClaim(address subject, bytes32 key, bytes32 value) public {\r\n        registry[msg.sender][subject][key] = value;\r\n        emit ClaimSet(msg.sender, subject, key, value, now);\r\n    }\r\n\r\n    function setSelfClaim(bytes32 key, bytes32 value) public {\r\n        setClaim(msg.sender, key, value);\r\n    }\r\n\r\n    function getClaim(address issuer, address subject, bytes32 key) public view returns(bytes32) {\r\n        return registry[issuer][subject][key];\r\n    }\r\n\r\n    function removeClaim(address issuer, address subject, bytes32 key) public {\r\n        require(msg.sender == issuer);\r\n        delete registry[issuer][subject][key];\r\n        emit ClaimRemoved(msg.sender, subject, key, now);\r\n    }\r\n}",
  "sourcePath": "C:/Users/maili/Desktop/blockchain-project/server/contracts/EthereumClaimsRegistry.sol",
  "compiler": {
    "name": "solc",
    "version": "0.5.1+commit.c8a2cb62.Emscripten.clang"
  },
  "schemaVersion": "3.0.20",
  "updatedAt": "2020-01-06T14:44:03.175Z",
  "networkType": "ethereum",
  "devdoc": {
    "methods": {}
  },
  "userdoc": {
    "methods": {}
  }
}